{
  "contractName": "Roulette",
  "abi": [
    {
      "inputs": [],
      "stateMutability": "nonpayable",
      "type": "constructor"
    },
    {
      "inputs": [],
      "name": "bankAddress",
      "outputs": [
        {
          "internalType": "address",
          "name": "",
          "type": "address"
        }
      ],
      "stateMutability": "view",
      "type": "function",
      "constant": true
    },
    {
      "inputs": [],
      "name": "increaseFunds",
      "outputs": [],
      "stateMutability": "payable",
      "type": "function",
      "payable": true
    },
    {
      "inputs": [],
      "name": "withdrawMoney",
      "outputs": [],
      "stateMutability": "nonpayable",
      "type": "function"
    },
    {
      "inputs": [
        {
          "internalType": "string",
          "name": "color",
          "type": "string"
        },
        {
          "internalType": "uint256",
          "name": "amount",
          "type": "uint256"
        }
      ],
      "name": "placeBet",
      "outputs": [],
      "stateMutability": "nonpayable",
      "type": "function"
    },
    {
      "inputs": [],
      "name": "getPlayers",
      "outputs": [
        {
          "internalType": "address[]",
          "name": "",
          "type": "address[]"
        }
      ],
      "stateMutability": "view",
      "type": "function",
      "constant": true
    },
    {
      "inputs": [],
      "name": "start",
      "outputs": [],
      "stateMutability": "nonpayable",
      "type": "function"
    },
    {
      "inputs": [],
      "name": "getBetters",
      "outputs": [
        {
          "internalType": "address[]",
          "name": "",
          "type": "address[]"
        },
        {
          "internalType": "address[]",
          "name": "",
          "type": "address[]"
        },
        {
          "internalType": "address[]",
          "name": "",
          "type": "address[]"
        }
      ],
      "stateMutability": "view",
      "type": "function",
      "constant": true
    },
    {
      "inputs": [],
      "name": "getAvailableFunds",
      "outputs": [
        {
          "internalType": "uint256",
          "name": "",
          "type": "uint256"
        }
      ],
      "stateMutability": "view",
      "type": "function",
      "constant": true
    },
    {
      "inputs": [],
      "name": "getSpinsHistory",
      "outputs": [
        {
          "internalType": "uint256[]",
          "name": "",
          "type": "uint256[]"
        }
      ],
      "stateMutability": "view",
      "type": "function",
      "constant": true
    },
    {
      "inputs": [],
      "name": "getPlayerLastGameRound",
      "outputs": [
        {
          "components": [
            {
              "internalType": "uint256",
              "name": "betAmount",
              "type": "uint256"
            },
            {
              "internalType": "string",
              "name": "betColor",
              "type": "string"
            },
            {
              "internalType": "address",
              "name": "player",
              "type": "address"
            }
          ],
          "internalType": "struct Roulette.GameRound",
          "name": "",
          "type": "tuple"
        }
      ],
      "stateMutability": "view",
      "type": "function",
      "constant": true
    },
    {
      "inputs": [],
      "name": "spinWheel",
      "outputs": [],
      "stateMutability": "nonpayable",
      "type": "function"
    }
  ],
  "bytecode": "0x600e6080819052610260604052600060a0818152600160c081905260e08390526101008190526101208390526101408190526101608390526101808190526101a08390526101c08190526101e0839052610200839052610220526102409190915261006d9160069190610092565b5034801561007a57600080fd5b50600080546001600160a01b03191633179055610139565b6001830191839082156101145791602002820160005b838211156100e557835183826101000a81548160ff02191690831515021790555092602001926001016020816000010492830192600103026100a8565b80156101125782816101000a81549060ff02191690556001016020816000010492830192600103026100e5565b505b50610120929150610124565b5090565b5b808211156101205760008155600101610125565b6080516111a562000155600039600061026d01526111a56000f3fe60806040526004361061009c5760003560e01c8063ac44600211610064578063ac44600214610164578063be9a655514610179578063bf7587c11461018e578063d76f2a1e146101b0578063ddb57092146101d0578063fbf9dab7146101d857600080fd5b806315ecef92146100a15780635195bd29146100b857806373911028146100e85780637822ed491461010a5780638b5b9ccc14610142575b600080fd5b3480156100ad57600080fd5b506100b66101fc565b005b3480156100c457600080fd5b50336000908152600860205260409020546040519081526020015b60405180910390f35b3480156100f457600080fd5b506100fd6105e0565b6040516100df9190610d3a565b34801561011657600080fd5b5060005461012a906001600160a01b031681565b6040516001600160a01b0390911681526020016100df565b34801561014e57600080fd5b50610157610638565b6040516100df9190610dc2565b34801561017057600080fd5b506100b6610699565b34801561018557600080fd5b506100b661083c565b34801561019a57600080fd5b506101a36108b7565b6040516100df9190610e00565b3480156101bc57600080fd5b506100b66101cb366004610e6f565b6109b4565b6100b6610ad1565b3480156101e457600080fd5b506101ed610b37565b6040516100df93929190610f24565b6000546001600160a01b031633146102695760405162461bcd60e51b815260206004820152602560248201527f4f6e6c7920636f6e7472616374206f776e65722063616e207370696e20726f756044820152646c6574746560d81b60648201526084015b60405180910390fd5b60007f00000000000000000000000000000000000000000000000000000000000000004244336040516020016102c493929190928352602083019190915260601b6bffffffffffffffffffffffff1916604082015260540190565b6040516020818303038152906040528051906020012060001c6102e79190610f67565b60018054808201825560009182527fb10e2d527612073b26eecdfd717e6a320cf44b4afac2b0732d9fcbe2b7fa0cf601829055909150606090829003610349575060408051808201909152600581526433b932b2b760d91b60208201526103b5565b600682600e811061035c5761035c610f89565b602081049091015460ff601f9092166101000a9004161561039757506040805180820190915260038152621c995960ea1b60208201526103b5565b50604080518082019091526005815264626c61636b60d81b60208201525b60005b6002548110156105db576000600282815481106103d7576103d7610f89565b60009182526020808320909101546001600160a01b03168083526007909152604090912054909150156105c8576001600160a01b038116600090815260076020526040902060010180546104b3919061042f90610f9f565b80601f016020809104026020016040519081016040528092919081815260200182805461045b90610f9f565b80156104a85780601f1061047d576101008083540402835291602001916104a8565b820191906000526020600020905b81548152906001019060200180831161048b57829003601f168201915b505050505084610c61565b80156104e157506104e1836040518060400160405280600581526020016433b932b2b760d91b815250610c61565b1561053d576001600160a01b03811660009081526007602052604090205461050a90600e610fef565b6001600160a01b03821660009081526008602052604081208054909190610532908490611006565b909155506105bf9050565b6001600160a01b03811660009081526007602052604090206001018054610568919061042f90610f9f565b156105bf576001600160a01b038116600090815260076020526040902054610591906002610fef565b6001600160a01b038216600090815260086020526040812080549091906105b9908490611006565b90915550505b6105c881610cbb565b50806105d381611019565b9150506103b8565b505050565b6060600180548060200260200160405190810160405280929190818152602001828054801561062e57602002820191906000526020600020905b81548152602001906001019080831161061a575b5050505050905090565b6060600280548060200260200160405190810160405280929190818152602001828054801561062e57602002820191906000526020600020905b81546001600160a01b03168152600190910190602001808311610672575050505050905090565b336000908152600860205260409020546106f55760405162461bcd60e51b815260206004820152601860248201527f596f75206d75737420656e74657220616e20616d6f756e7400000000000000006044820152606401610260565b336000908152600860205260408082205482546001600160a01b0316835291205410156107645760405162461bcd60e51b815260206004820152601c60248201527f4e6f7420656e6f7567682066756e647320696e207468652062616e6b000000006044820152606401610260565b336000908152600860205260408082205482546001600160a01b03168352908220805491928392610796908490611032565b9091555050336000818152600860205260408082208290555190919083908381818185875af1925050503d80600081146107ec576040519150601f19603f3d011682016040523d82523d6000602084013e6107f1565b606091505b50509050806108385760405162461bcd60e51b8152602060048201526013602482015272115512081d1c985b9cd9995c8819985a5b1959606a1b6044820152606401610260565b5050565b3360009081526009602052604090205460ff1615156001146108b557336000818152600960205260408120805460ff191660019081179091556002805491820181559091527f405787fa12a823e0f2b7631cc41b3ba8828b3321ca811111fa75cd3aa3bb5ace0180546001600160a01b03191690911790555b565b6108e46040518060600160405280600081526020016060815260200160006001600160a01b031681525090565b3360009081526007602090815260409182902082516060810190935280548352600181018054919284019161091890610f9f565b80601f016020809104026020016040519081016040528092919081815260200182805461094490610f9f565b80156109915780601f1061096657610100808354040283529160200191610991565b820191906000526020600020905b81548152906001019060200180831161097457829003601f168201915b5050509183525050600291909101546001600160a01b0316602090910152919050565b3360009081526009602052604090205460ff16610a135760405162461bcd60e51b815260206004820152601b60248201527f506c61796572206e6565647320746f20626520617070726f76656400000000006044820152606401610260565b33600090815260086020526040902054811115610a6a5760405162461bcd60e51b81526020600482015260156024820152744e6f7420656e6f75676820757365722066756e647360581b6044820152606401610260565b336000908152600760205260409020818155600101610a898382611093565b5033600081815260076020908152604080832060020180546001600160a01b031916909417909355600890529081208054839290610ac8908490611032565b90915550505050565b60003411610b115760405162461bcd60e51b815260206004820152600d60248201526c09aeae6e840e6cadcc8408aa89609b1b6044820152606401610260565b3360009081526008602052604081208054349290610b30908490611006565b9091555050565b606080606060036004600582805480602002602001604051908101604052809291908181526020018280548015610b9757602002820191906000526020600020905b81546001600160a01b03168152600190910190602001808311610b79575b5050505050925081805480602002602001604051908101604052809291908181526020018280548015610bf357602002820191906000526020600020905b81546001600160a01b03168152600190910190602001808311610bd5575b5050505050915080805480602002602001604051908101604052809291908181526020018280548015610c4f57602002820191906000526020600020905b81546001600160a01b03168152600190910190602001808311610c31575b50505050509050925092509250909192565b600081604051602001610c749190611153565b6040516020818303038152906040528051906020012083604051602001610c9b9190611153565b604051602081830303815290604052805190602001201490505b92915050565b6040805160608101825260008082528251602081810185528282528084019182526001600160a01b0386168486018190528352600790529290208151815591519091906001820190610d0d9082611093565b5060409190910151600290910180546001600160a01b0319166001600160a01b0390921691909117905550565b6020808252825182820181905260009190848201906040850190845b81811015610d7257835183529284019291840191600101610d56565b50909695505050505050565b600081518084526020808501945080840160005b83811015610db75781516001600160a01b031687529582019590820190600101610d92565b509495945050505050565b602081526000610dd56020830184610d7e565b9392505050565b60005b83811015610df7578181015183820152602001610ddf565b50506000910152565b602081528151602082015260006020830151606060408401528051806080850152610e328160a0860160208501610ddc565b604094909401516001600160a01b03166060840152505060a0601f909201601f1916010190565b634e487b7160e01b600052604160045260246000fd5b60008060408385031215610e8257600080fd5b823567ffffffffffffffff80821115610e9a57600080fd5b818501915085601f830112610eae57600080fd5b813581811115610ec057610ec0610e59565b604051601f8201601f19908116603f01168101908382118183101715610ee857610ee8610e59565b81604052828152886020848701011115610f0157600080fd5b826020860160208301376000602093820184015298969091013596505050505050565b606081526000610f376060830186610d7e565b8281036020840152610f498186610d7e565b90508281036040840152610f5d8185610d7e565b9695505050505050565b600082610f8457634e487b7160e01b600052601260045260246000fd5b500690565b634e487b7160e01b600052603260045260246000fd5b600181811c90821680610fb357607f821691505b602082108103610fd357634e487b7160e01b600052602260045260246000fd5b50919050565b634e487b7160e01b600052601160045260246000fd5b8082028115828204841417610cb557610cb5610fd9565b80820180821115610cb557610cb5610fd9565b60006001820161102b5761102b610fd9565b5060010190565b81810381811115610cb557610cb5610fd9565b601f8211156105db57600081815260208120601f850160051c8101602086101561106c5750805b601f850160051c820191505b8181101561108b57828155600101611078565b505050505050565b815167ffffffffffffffff8111156110ad576110ad610e59565b6110c1816110bb8454610f9f565b84611045565b602080601f8311600181146110f657600084156110de5750858301515b600019600386901b1c1916600185901b17855561108b565b600085815260208120601f198616915b8281101561112557888601518255948401946001909101908401611106565b50858210156111435787850151600019600388901b60f8161c191681555b5050505050600190811b01905550565b60008251611165818460208701610ddc565b919091019291505056fea2646970667358221220965b1d25e801a11917467e4d43aefba31ea2f423aa0288d2d15eb6924bb0da5364736f6c63430008110033",
  "immutableReferences": {
    "6": [
      {
        "length": 32,
        "start": 621
      }
    ]
  },
  "source": "// SPDX-License-Identifier: MIT\r\npragma solidity ^0.8.0;\r\n\r\ncontract Roulette {\r\n    address public bankAddress;\r\n    uint256 immutable ROULETTE_NUMBER_COUNT = 14;\r\n    uint256[] spinsHistory;\r\n    address[] players;\r\n    address[] redBetters;\r\n    address[] blackBetters;\r\n    address[] greenBetters;\r\n    bool[14] isNumberRed = [false, true, false, true, false, true, false, true, false, true, false, false, true, false];\r\n    \r\n    constructor() {\r\n        bankAddress = msg.sender;\r\n    }\r\n\r\n    struct GameRound {\r\n        uint256 betAmount;\r\n        string betColor;\r\n        address player;\r\n    }\r\n\r\n    mapping(address => GameRound) gameRounds;\r\n    mapping(address => uint256) registeredFunds;\r\n    mapping(address => bool) approvedPlayer;\r\n\r\n    function increaseFunds() public payable {\r\n        require(msg.value > 0, \"Must send ETH\");\r\n        registeredFunds[msg.sender] += msg.value;\r\n    }\r\n\r\n    function withdrawMoney() public {\r\n        require(registeredFunds[msg.sender] > 0, \"You must enter an amount\");\r\n        require(registeredFunds[bankAddress] >= registeredFunds[msg.sender], \"Not enough funds in the bank\");\r\n\r\n        uint256 funds = registeredFunds[msg.sender];\r\n        registeredFunds[bankAddress] -= funds;\r\n        registeredFunds[msg.sender] = 0;\r\n\r\n        (bool wasSuccessful, ) = msg.sender.call{value: funds}(\"\");\r\n        require(wasSuccessful, \"ETH transfer failed\");\r\n    }\r\n\r\n    function placeBet(string memory color, uint256 amount) public {\r\n        require(approvedPlayer[msg.sender], \"Player needs to be approved\");\r\n        require(registeredFunds[msg.sender] >= amount, \"Not enough user funds\");\r\n\r\n        gameRounds[msg.sender].betAmount = amount;\r\n        gameRounds[msg.sender].betColor = color;\r\n        gameRounds[msg.sender].player = msg.sender;\r\n        registeredFunds[msg.sender] -= amount;\r\n\r\n        // if (compareStrings(color, \"red\")) redBetters.push(msg.sender);\r\n        // else if (compareStrings(color, \"black\")) blackBetters.push(msg.sender);\r\n        // else greenBetters.push(msg.sender);\r\n    }\r\n\r\n    function getPlayers() public view returns(address [] memory) {\r\n        return players;\r\n    }\r\n\r\n    function resetGameRound(address userAddress) private {\r\n        gameRounds[userAddress] = GameRound(0, \"\", userAddress);\r\n    }\r\n\r\n    function start() public {\r\n        // require(msg.sender != bankAddress);\r\n        // require(!approvedPlayer[msg.sender], \"Player is already approved\");\r\n        if (approvedPlayer[msg.sender] != true) {\r\n            approvedPlayer[msg.sender] = true;\r\n            players.push(msg.sender);\r\n        }\r\n    }\r\n\r\n    function getBetters() public view returns(address[] memory, address[] memory, address[] memory){\r\n        return (redBetters, blackBetters, greenBetters);\r\n    }\r\n\r\n    function compareStrings(string memory a, string memory b) private pure returns (bool) {\r\n        return (keccak256(abi.encodePacked((a))) == keccak256(abi.encodePacked((b))));\r\n    }\r\n\r\n    function getAvailableFunds() public view returns (uint256) {\r\n        return registeredFunds[msg.sender];\r\n    }\r\n\r\n    function getSpinsHistory() public view returns (uint256[] memory) {\r\n        return spinsHistory;\r\n    }\r\n\r\n    function getPlayerLastGameRound() public view returns (GameRound memory) {\r\n        return gameRounds[msg.sender];\r\n    }\r\n\r\n    function spinWheel() public {\r\n        require(msg.sender == bankAddress, \"Only contract owner can spin roulette\");\r\n        uint256 number = uint(keccak256(abi.encodePacked(block.timestamp, block.difficulty, msg.sender))) % ROULETTE_NUMBER_COUNT;\r\n        spinsHistory.push(number);\r\n        string memory color;\r\n\r\n        if (number == 0) color = \"green\";\r\n        else if (isNumberRed[number]) color = \"red\";\r\n        else color = \"black\";\r\n\r\n        // delete redBetters;\r\n        // delete blackBetters;\r\n        // delete greenBetters;\r\n\r\n        for (uint256 i=0; i<players.length; i++) {\r\n            address player = players[i];\r\n            if (gameRounds[player].betAmount != 0) {\r\n                if (compareStrings(gameRounds[player].betColor, color) && compareStrings(color, \"green\")) registeredFunds[player] += gameRounds[player].betAmount*14;\r\n                else if (compareStrings(gameRounds[player].betColor, color)) registeredFunds[player] += gameRounds[player].betAmount*2;\r\n                resetGameRound(player);\r\n            }\r\n        }\r\n    }\r\n}",
  "sourcePath": "C:\\Users\\valat\\OneDrive\\Stalinis kompiuteris\\uni\\bloku grandines\\smart-contracts\\solidity\\contracts\\Roulette.sol",
  "compiler": {
    "name": "solc",
    "version": "0.8.17+commit.8df45f5f.Emscripten.clang"
  },
  "schemaVersion": "3.4.11",
  "updatedAt": "2022-12-11T07:22:09.919Z",
  "networkType": "ethereum",
  "devdoc": {
    "kind": "dev",
    "methods": {},
    "version": 1
  },
  "userdoc": {
    "kind": "user",
    "methods": {},
    "version": 1
  }
}