{
  "contractName": "Roulette",
  "abi": [
    {
      "inputs": [],
      "stateMutability": "nonpayable",
      "type": "constructor"
    },
    {
      "inputs": [],
      "name": "bankAddress",
      "outputs": [
        {
          "internalType": "address",
          "name": "",
          "type": "address"
        }
      ],
      "stateMutability": "view",
      "type": "function",
      "constant": true
    },
    {
      "inputs": [],
      "name": "increaseFunds",
      "outputs": [],
      "stateMutability": "payable",
      "type": "function",
      "payable": true
    },
    {
      "inputs": [],
      "name": "withdrawMoney",
      "outputs": [],
      "stateMutability": "nonpayable",
      "type": "function"
    },
    {
      "inputs": [
        {
          "internalType": "string",
          "name": "color",
          "type": "string"
        },
        {
          "internalType": "uint256",
          "name": "amount",
          "type": "uint256"
        }
      ],
      "name": "placeBet",
      "outputs": [],
      "stateMutability": "nonpayable",
      "type": "function"
    },
    {
      "inputs": [],
      "name": "start",
      "outputs": [],
      "stateMutability": "nonpayable",
      "type": "function"
    },
    {
      "inputs": [],
      "name": "test",
      "outputs": [
        {
          "internalType": "address[]",
          "name": "",
          "type": "address[]"
        }
      ],
      "stateMutability": "view",
      "type": "function",
      "constant": true
    },
    {
      "inputs": [],
      "name": "getAvailableFunds",
      "outputs": [
        {
          "internalType": "uint256",
          "name": "",
          "type": "uint256"
        }
      ],
      "stateMutability": "view",
      "type": "function",
      "constant": true
    },
    {
      "inputs": [],
      "name": "getSpinsHistory",
      "outputs": [
        {
          "internalType": "uint256[]",
          "name": "",
          "type": "uint256[]"
        }
      ],
      "stateMutability": "view",
      "type": "function",
      "constant": true
    },
    {
      "inputs": [],
      "name": "getPlayerLastGameRound",
      "outputs": [
        {
          "components": [
            {
              "internalType": "uint256",
              "name": "betAmount",
              "type": "uint256"
            },
            {
              "internalType": "string",
              "name": "betColor",
              "type": "string"
            }
          ],
          "internalType": "struct Roulette.GameRound",
          "name": "",
          "type": "tuple"
        }
      ],
      "stateMutability": "view",
      "type": "function",
      "constant": true
    },
    {
      "inputs": [],
      "name": "spinWheel",
      "outputs": [],
      "stateMutability": "nonpayable",
      "type": "function"
    }
  ],
  "bytecode": "0x60256080819052610540604052600060a0818152600160c081905260e08390526101008190526101208390526101408190526101608390526101808190526101a08390526101c08190526101e08390526102008390526102208190526102408390526102608190526102808390526102a08190526102c08390526102e08190526103008190526103208390526103408190526103608390526103808190526103a08390526103c08190526103e08390526104008190526104208390526104408390526104608190526104808390526104a08190526104c08390526104e081905261050092909252610520919091526100fa916003919061011f565b5034801561010757600080fd5b50600080546001600160a01b031916331790556101c6565b6002830191839082156101a15791602002820160005b8382111561017257835183826101000a81548160ff0219169083151502179055509260200192600101602081600001049283019260010302610135565b801561019f5782816101000a81549060ff0219169055600101602081600001049283019260010302610172565b505b506101ad9291506101b1565b5090565b5b808211156101ad57600081556001016101b2565b608051610fd66101e1600039600061023e0152610fd66000f3fe6080604052600436106100915760003560e01c8063be9a655511610059578063be9a65551461014c578063bf7587c114610161578063d76f2a1e14610183578063ddb57092146101a3578063f8a8fd6d146101ab57600080fd5b806315ecef92146100965780635195bd29146100ad57806373911028146100dd5780637822ed49146100ff578063ac44600214610137575b600080fd5b3480156100a257600080fd5b506100ab6101cd565b005b3480156100b957600080fd5b50336000908152600660205260409020546040519081526020015b60405180910390f35b3480156100e957600080fd5b506100f26105bd565b6040516100d49190610bde565b34801561010b57600080fd5b5060005461011f906001600160a01b031681565b6040516001600160a01b0390911681526020016100d4565b34801561014357600080fd5b506100ab610615565b34801561015857600080fd5b506100ab6107b8565b34801561016d57600080fd5b5061017661088d565b6040516100d49190610c46565b34801561018f57600080fd5b506100ab61019e366004610ca2565b61095c565b6100ab610a6c565b3480156101b757600080fd5b506101c0610ad2565b6040516100d49190610d57565b6000546001600160a01b0316331461023a5760405162461bcd60e51b815260206004820152602560248201527f4f6e6c7920636f6e7472616374206f776e65722063616e207370696e20726f756044820152646c6574746560d81b60648201526084015b60405180910390fd5b60007f000000000000000000000000000000000000000000000000000000000000000042443360405160200161029593929190928352602083019190915260601b6bffffffffffffffffffffffff1916604082015260540190565b6040516020818303038152906040528051906020012060001c6102b89190610d98565b60018054808201825560009182527fb10e2d527612073b26eecdfd717e6a320cf44b4afac2b0732d9fcbe2b7fa0cf60182905590915060609082900361031a575060408051808201909152600581526433b932b2b760d91b6020820152610386565b6003826025811061032d5761032d610dba565b602081049091015460ff601f9092166101000a9004161561036857506040805180820190915260038152621c995960ea1b6020820152610386565b50604080518082019091526005815264626c61636b60d81b60208201525b60005b6002548110156105b8576000600282815481106103a8576103a8610dba565b60009182526020808320909101546001600160a01b03168083526005909152604090912054909150156105a5576001600160a01b03811660009081526005602052604090206001018054610484919061040090610dd0565b80601f016020809104026020016040519081016040528092919081815260200182805461042c90610dd0565b80156104795780601f1061044e57610100808354040283529160200191610479565b820191906000526020600020905b81548152906001019060200180831161045c57829003601f168201915b505050505084610b33565b80156104b257506104b2836040518060400160405280600581526020016433b932b2b760d91b815250610b33565b1561050e576001600160a01b0381166000908152600560205260409020546104db90600c610e20565b6001600160a01b03821660009081526006602052604081208054909190610503908490610e37565b9091555061059c9050565b6001600160a01b03811660009081526005602052604090206001018054610539919061040090610dd0565b15610562576001600160a01b0381166000908152600560205260409020546104db906002610e20565b6001600160a01b03811660009081526005602090815260408083205460069092528220805491929091610596908490610e4a565b90915550505b6105a581610b8d565b50806105b081610e5d565b915050610389565b505050565b6060600180548060200260200160405190810160405280929190818152602001828054801561060b57602002820191906000526020600020905b8154815260200190600101908083116105f7575b5050505050905090565b336000908152600660205260409020546106715760405162461bcd60e51b815260206004820152601860248201527f596f75206d75737420656e74657220616e20616d6f756e7400000000000000006044820152606401610231565b336000908152600660205260408082205482546001600160a01b0316835291205410156106e05760405162461bcd60e51b815260206004820152601c60248201527f4e6f7420656e6f7567682066756e647320696e207468652062616e6b000000006044820152606401610231565b336000908152600660205260408082205482546001600160a01b03168352908220805491928392610712908490610e4a565b9091555050336000818152600660205260408082208290555190919083908381818185875af1925050503d8060008114610768576040519150601f19603f3d011682016040523d82523d6000602084013e61076d565b606091505b50509050806107b45760405162461bcd60e51b8152602060048201526013602482015272115512081d1c985b9cd9995c8819985a5b1959606a1b6044820152606401610231565b5050565b6000546001600160a01b031633036107cf57600080fd5b3360009081526007602052604090205460ff161561082f5760405162461bcd60e51b815260206004820152601a60248201527f506c6179657220697320616c726561647920617070726f7665640000000000006044820152606401610231565b336000818152600760205260408120805460ff191660019081179091556002805491820181559091527f405787fa12a823e0f2b7631cc41b3ba8828b3321ca811111fa75cd3aa3bb5ace0180546001600160a01b0319169091179055565b6040805180820190915260008152606060208201523360009081526005602090815260409182902082518084019093528054835260018101805491928401916108d590610dd0565b80601f016020809104026020016040519081016040528092919081815260200182805461090190610dd0565b801561094e5780601f106109235761010080835404028352916020019161094e565b820191906000526020600020905b81548152906001019060200180831161093157829003601f168201915b505050505081525050905090565b3360009081526007602052604090205460ff166109bb5760405162461bcd60e51b815260206004820152601b60248201527f506c61796572206e6565647320746f20626520617070726f76656400000000006044820152606401610231565b33600090815260066020526040902054811115610a125760405162461bcd60e51b81526020600482015260156024820152744e6f7420656e6f75676820757365722066756e647360581b6044820152606401610231565b610a2481670de0b6b3a7640000610e20565b336000908152600560205260409020908155600101610a438382610ec4565b503360009081526006602052604081208054839290610a63908490610e4a565b90915550505050565b60003411610aac5760405162461bcd60e51b815260206004820152600d60248201526c09aeae6e840e6cadcc8408aa89609b1b6044820152606401610231565b3360009081526006602052604081208054349290610acb908490610e37565b9091555050565b6060600280548060200260200160405190810160405280929190818152602001828054801561060b57602002820191906000526020600020905b81546001600160a01b03168152600190910190602001808311610b0c575050505050905090565b600081604051602001610b469190610f84565b6040516020818303038152906040528051906020012083604051602001610b6d9190610f84565b604051602081830303815290604052805190602001201490505b92915050565b60408051808201825260008082528251602081810185528282528084019182526001600160a01b0386168352600590529290208151815591519091906001820190610bd89082610ec4565b50505050565b6020808252825182820181905260009190848201906040850190845b81811015610c1657835183529284019291840191600101610bfa565b50909695505050505050565b60005b83811015610c3d578181015183820152602001610c25565b50506000910152565b6020815281516020820152600060208301516040808401528051806060850152610c77816080860160208501610c22565b601f01601f1916929092016080019392505050565b634e487b7160e01b600052604160045260246000fd5b60008060408385031215610cb557600080fd5b823567ffffffffffffffff80821115610ccd57600080fd5b818501915085601f830112610ce157600080fd5b813581811115610cf357610cf3610c8c565b604051601f8201601f19908116603f01168101908382118183101715610d1b57610d1b610c8c565b81604052828152886020848701011115610d3457600080fd5b826020860160208301376000602093820184015298969091013596505050505050565b6020808252825182820181905260009190848201906040850190845b81811015610c165783516001600160a01b031683529284019291840191600101610d73565b600082610db557634e487b7160e01b600052601260045260246000fd5b500690565b634e487b7160e01b600052603260045260246000fd5b600181811c90821680610de457607f821691505b602082108103610e0457634e487b7160e01b600052602260045260246000fd5b50919050565b634e487b7160e01b600052601160045260246000fd5b8082028115828204841417610b8757610b87610e0a565b80820180821115610b8757610b87610e0a565b81810381811115610b8757610b87610e0a565b600060018201610e6f57610e6f610e0a565b5060010190565b601f8211156105b857600081815260208120601f850160051c81016020861015610e9d5750805b601f850160051c820191505b81811015610ebc57828155600101610ea9565b505050505050565b815167ffffffffffffffff811115610ede57610ede610c8c565b610ef281610eec8454610dd0565b84610e76565b602080601f831160018114610f275760008415610f0f5750858301515b600019600386901b1c1916600185901b178555610ebc565b600085815260208120601f198616915b82811015610f5657888601518255948401946001909101908401610f37565b5085821015610f745787850151600019600388901b60f8161c191681555b5050505050600190811b01905550565b60008251610f96818460208701610c22565b919091019291505056fea2646970667358221220aec95901ceb98ef9db837780f45e3f7c2760af6491647995d0936cf92cdd644764736f6c63430008110033",
  "immutableReferences": {
    "6": [
      {
        "length": 32,
        "start": 574
      }
    ]
  },
  "source": "// SPDX-License-Identifier: MIT\r\npragma solidity ^0.8.0;\r\n\r\ncontract Roulette {\r\n    address public bankAddress;\r\n    uint256 immutable ROULETTE_NUMBER_COUNT = 37;\r\n    uint256[] spinsHistory;\r\n    address[] players;\r\n    bool[37] isNumberRed = [false, true, false, true, false, true, false, true, false, true, false, false, true, false, true, false, true, false, true, true, false, true, false, true, false, true, false, true, false, false, true, false, true, false, true, false, true];\r\n    \r\n    constructor() {\r\n        bankAddress = msg.sender;\r\n    }\r\n\r\n    struct GameRound {\r\n        uint256 betAmount;\r\n        string betColor;\r\n    }\r\n\r\n    mapping(address => GameRound) gameRounds;\r\n    mapping(address => uint256) registeredFunds;\r\n    mapping(address => bool) approvedPlayer;\r\n\r\n    function increaseFunds() public payable {\r\n        require(msg.value > 0, \"Must send ETH\");\r\n        registeredFunds[msg.sender] += msg.value;\r\n    }\r\n\r\n    function withdrawMoney() public {\r\n        require(registeredFunds[msg.sender] > 0, \"You must enter an amount\");\r\n        require(registeredFunds[bankAddress] >= registeredFunds[msg.sender], \"Not enough funds in the bank\");\r\n\r\n        uint256 funds = registeredFunds[msg.sender];\r\n        registeredFunds[bankAddress] -= funds;\r\n        registeredFunds[msg.sender] = 0;\r\n\r\n        (bool wasSuccessful, ) = msg.sender.call{value: funds}(\"\");\r\n        require(wasSuccessful, \"ETH transfer failed\");\r\n    }\r\n\r\n    function placeBet(string memory color, uint256 amount) public {\r\n        require(approvedPlayer[msg.sender], \"Player needs to be approved\");\r\n        require(registeredFunds[msg.sender] >= amount, \"Not enough user funds\");\r\n\r\n        gameRounds[msg.sender].betAmount = amount * 1000000000000000000;\r\n        gameRounds[msg.sender].betColor = color;\r\n        registeredFunds[msg.sender] -= amount;\r\n    }\r\n\r\n    function resetGameRound(address userAddress) private {\r\n        gameRounds[userAddress] = GameRound(0, \"\");\r\n    }\r\n\r\n    function start() public {\r\n        require(msg.sender != bankAddress);\r\n        require(!approvedPlayer[msg.sender], \"Player is already approved\");\r\n        approvedPlayer[msg.sender] = true;\r\n        players.push(msg.sender);\r\n    }\r\n\r\n    function test() public view returns(address[] memory){\r\n        return players;\r\n    }\r\n\r\n    function compareStrings(string memory a, string memory b) private pure returns (bool) {\r\n        return (keccak256(abi.encodePacked((a))) == keccak256(abi.encodePacked((b))));\r\n    }\r\n\r\n    function getAvailableFunds() public view returns (uint256) {\r\n        return registeredFunds[msg.sender];\r\n    }\r\n\r\n    function getSpinsHistory() public view returns (uint256[] memory) {\r\n        return spinsHistory;\r\n    }\r\n\r\n    function getPlayerLastGameRound() public view returns (GameRound memory) {\r\n        return gameRounds[msg.sender];\r\n    }\r\n\r\n    function spinWheel() public {\r\n        require(msg.sender == bankAddress, \"Only contract owner can spin roulette\");\r\n        uint256 number = uint(keccak256(abi.encodePacked(block.timestamp, block.difficulty, msg.sender))) % ROULETTE_NUMBER_COUNT;\r\n        spinsHistory.push(number);\r\n        string memory color;\r\n\r\n        if (number == 0) color = \"green\";\r\n        else if (isNumberRed[number]) color = \"red\";\r\n        else color = \"black\";\r\n\r\n        for (uint256 i=0; i<players.length; i++) {\r\n            address player = players[i];\r\n            if (gameRounds[player].betAmount != 0) {\r\n                if (compareStrings(gameRounds[player].betColor, color) && compareStrings(color, \"green\")) registeredFunds[player] += gameRounds[player].betAmount*12;\r\n                else if (compareStrings(gameRounds[player].betColor, color)) registeredFunds[player] += gameRounds[player].betAmount*2;\r\n                else registeredFunds[player] -= gameRounds[player].betAmount;\r\n                resetGameRound(player);\r\n            }\r\n        }\r\n    }\r\n}\r\n// pragma solidity ^0.8.7;\r\n\r\n// import \"https://github.com/smartcontractkit/chainlink/blob/develop/contracts/src/v0.8/VRFConsumerBaseV2.sol\";\r\n\r\n// /**\r\n//  * Request testnet LINK and ETH here: https://faucets.chain.link/\r\n//  * Find information on LINK Token Contracts and get the latest ETH and LINK faucets here: https://docs.chain.link/docs/link-token-contracts/\r\n//  */\r\n\r\n// contract Roulette is VRFConsumerBase {\r\n//     bytes32 internal keyHash;\r\n//     uint256 internal fee;\r\n//     address payable public owner;\r\n//     uint256 public randomResult;\r\n//     uint public gameId;\r\n//     uint256 public lastGameId;\r\n\r\n//     struct Spin {\r\n//         uint requestId;\r\n//         string bet;\r\n//         uint256 amount;\r\n//         address payable player;\r\n//         string spin_result;\r\n//         uint spin_result_number;\r\n//     }\r\n\r\n//     event RequestFulfilled(bytes32 requestId, uint256 randomness);\r\n//     event Result (uint256 id, string bet, uint amount, address player, string winColor, uint256 randomResult);\r\n//     event Received (address indexed sender, uint256 amount);\r\n//     event Withdraw (address admin, uint256 amount);\r\n\r\n//     mapping(uint => Spin) public Spins;\r\n\r\n//     /**\r\n//      * Constructor inherits VRFConsumerBase\r\n//      *\r\n//      * Network: Goerli\r\n//      * Chainlink VRF Coordinator address: 0x2bce784e69d2Ff36c71edcB9F88358dB0DfB55b4\r\n//      * LINK token address: 0x326C977E6efc84E512bB9C30f76E30c160eD06FB\r\n//      * Key Hash: 0x0476f9a745b61ea5c0ab224d3a6e4c99f0b02fce4da01143a4f70aa80ae76e8a\r\n//      */\r\n//     constructor()\r\n//         VRFConsumerBase(\r\n//             0x3d2341ADb2D31f1c5530cDC622016af293177AE0, // VRF Coordinator\r\n//             0xb0897686c545045aFc77CF20eC7A532E3120E0F1 // LINK Token\r\n//         )\r\n//     {\r\n//         keyHash = 0xf86195cf7690c55907b2b611ebb7343a6f649bff128701cc542f0569e2c549da;\r\n//         fee = 0.0001 * 10 ** 18; // 0.0001 LINK\r\n//         owner = payable(msg.sender);\r\n//     }\r\n\r\n//     function spin(string memory bet) public payable {\r\n//         require(LINK.balanceOf(address(this)) >= fee, \"Not enough Link in the contract\");\r\n//         require(compareStrings(bet, \"red\") || compareStrings(bet, \"black\") || compareStrings(bet, \"green\"), \"Bet can only be blakc, red or green\");\r\n//         require(address(this).balance >= msg.value*2 && !compareStrings(bet, \"green\"), \"Insufficent funds in contract\");\r\n//         require(address(this).balance >= msg.value*14 && compareStrings(bet, \"green\"), \"Insufficent funds in contract\");\r\n//         require(msg.value >= 0, \"Please enter a bet\");\r\n\r\n//         Spins[gameId] = Spin(gameId, bet, msg.value, payable(msg.sender), '', 0);\r\n//         gameId++;\r\n//         getRandomNumber();\r\n//     }\r\n\r\n//     function compareStrings(string memory a, string memory b) public pure returns(bool) {\r\n//         return (keccak256(abi.encodePacked(a)) == keccak256(abi.encodePacked(b))); \r\n//     }\r\n\r\n//     function getRandomNumber() public returns (bytes32 requestId) {\r\n//         require(\r\n//             LINK.balanceOf(address(this)) >= fee,\r\n//             \"Not enough LINK - fill contract with faucet\"\r\n//         );\r\n//         return requestRandomness(keyHash, fee);\r\n//     }\r\n\r\n//     function fulfillRandomness(\r\n//         bytes32 requestId,\r\n//         uint256 randomness\r\n//     ) internal override {\r\n//         randomResult = (randomness % 37);\r\n//         payOut();\r\n//         emit RequestFulfilled(requestId, randomness);\r\n//     }\r\n\r\n//     function payOut() public returns(uint256) {\r\n//         for(uint i=lastGameId; i < gameId; i++) {\r\n//             uint winAmount = 0;\r\n//             string memory winColor = \"\";\r\n\r\n//             if (\r\n//                 (randomResult <= 18 && compareStrings(Spins[i].bet, \"red\")) ||\r\n//                 (randomResult > 18 && compareStrings(Spins[i].bet, \"black\"))\r\n//             ) {\r\n//                 winAmount = Spins[i].amount*2;\r\n//                 Spins[i].player.transfer(winAmount);\r\n//             } else if (randomResult == 0 && compareStrings(Spins[i].bet, \"green\")) {\r\n//                 winAmount = Spins[i].amount*14;\r\n//                 Spins[i].player.transfer(winAmount);\r\n//             }\r\n\r\n//             if (randomResult <= 18) {\r\n//                 winColor = \"red\";\r\n//             } else if (randomResult >= 19) {\r\n//                 winColor = \"black\";\r\n//             } else if (randomResult == 0) {\r\n//                 winColor = \"green\";\r\n//             }\r\n\r\n//             Spins[i] = Spin(i, Spins[i].bet, Spins[i].amount, Spins[i].player, winColor, randomResult);\r\n//             emit Result(i, Spins[i].bet, Spins[i].amount, Spins[i].player, winColor, randomResult);\r\n//         }\r\n//         lastGameId=gameId;\r\n//         return lastGameId;\r\n//     }\r\n\r\n//     receive() external payable {\r\n//         emit Received(msg.sender, msg.value);\r\n//     }\r\n\r\n//     function WithDrawEther(uint256 amount) public {\r\n//         require(address(this).balance >= amount, \"Funds not there\");\r\n//         owner.transfer(amount);\r\n\r\n//         emit Withdraw(owner, amount);\r\n//     }\r\n// }\r\n",
  "sourcePath": "C:\\Users\\valat\\OneDrive\\Stalinis kompiuteris\\uni\\bloku grandines\\smart-contracts\\solidity\\contracts\\Roulette.sol",
  "compiler": {
    "name": "solc",
    "version": "0.8.17+commit.8df45f5f.Emscripten.clang"
  },
  "schemaVersion": "3.4.10",
  "updatedAt": "2022-12-03T21:38:02.963Z",
  "networkType": "ethereum",
  "devdoc": {
    "kind": "dev",
    "methods": {},
    "version": 1
  },
  "userdoc": {
    "kind": "user",
    "methods": {},
    "version": 1
  }
}