{
  "contractName": "Roulette",
  "abi": [
    {
      "inputs": [],
      "stateMutability": "nonpayable",
      "type": "constructor"
    },
    {
      "inputs": [],
      "name": "bankAddress",
      "outputs": [
        {
          "internalType": "address",
          "name": "",
          "type": "address"
        }
      ],
      "stateMutability": "view",
      "type": "function",
      "constant": true
    },
    {
      "inputs": [],
      "name": "increaseFunds",
      "outputs": [],
      "stateMutability": "payable",
      "type": "function",
      "payable": true
    },
    {
      "inputs": [],
      "name": "withdrawMoney",
      "outputs": [],
      "stateMutability": "nonpayable",
      "type": "function"
    },
    {
      "inputs": [
        {
          "internalType": "string",
          "name": "color",
          "type": "string"
        },
        {
          "internalType": "uint256",
          "name": "amount",
          "type": "uint256"
        }
      ],
      "name": "placeBet",
      "outputs": [],
      "stateMutability": "nonpayable",
      "type": "function"
    },
    {
      "inputs": [],
      "name": "getPlayers",
      "outputs": [
        {
          "internalType": "address[]",
          "name": "",
          "type": "address[]"
        }
      ],
      "stateMutability": "view",
      "type": "function",
      "constant": true
    },
    {
      "inputs": [],
      "name": "start",
      "outputs": [],
      "stateMutability": "nonpayable",
      "type": "function"
    },
    {
      "inputs": [],
      "name": "getAvailableFunds",
      "outputs": [
        {
          "internalType": "uint256",
          "name": "",
          "type": "uint256"
        }
      ],
      "stateMutability": "view",
      "type": "function",
      "constant": true
    },
    {
      "inputs": [],
      "name": "getSpinsHistory",
      "outputs": [
        {
          "internalType": "uint256[]",
          "name": "",
          "type": "uint256[]"
        }
      ],
      "stateMutability": "view",
      "type": "function",
      "constant": true
    },
    {
      "inputs": [],
      "name": "getPlayerLastGameRound",
      "outputs": [
        {
          "components": [
            {
              "internalType": "uint256",
              "name": "betAmount",
              "type": "uint256"
            },
            {
              "internalType": "string",
              "name": "betColor",
              "type": "string"
            },
            {
              "internalType": "address",
              "name": "player",
              "type": "address"
            }
          ],
          "internalType": "struct Roulette.GameRound",
          "name": "",
          "type": "tuple"
        }
      ],
      "stateMutability": "view",
      "type": "function",
      "constant": true
    },
    {
      "inputs": [],
      "name": "spinWheel",
      "outputs": [],
      "stateMutability": "nonpayable",
      "type": "function"
    }
  ],
  "bytecode": "0x600e608052610280604052600060a0818152600160c081905260e0819052610100819052610120819052610140819052610160819052610180526101a08290526101c08290526101e08290526102008290526102208290526102408290526102609190915261007290600390600f610097565b5034801561007f57600080fd5b50600080546001600160a01b0319163317905561013e565b6001830191839082156101195791602002820160005b838211156100ea57835183826101000a81548160ff02191690831515021790555092602001926001016020816000010492830192600103026100ad565b80156101175782816101000a81549060ff02191690556001016020816000010492830192600103026100ea565b505b50610125929150610129565b5090565b5b80821115610125576000815560010161012a565b608051610fec610159600039600061023e0152610fec6000f3fe6080604052600436106100915760003560e01c8063ac44600211610059578063ac44600214610159578063be9a65551461016e578063bf7587c114610183578063d76f2a1e146101a5578063ddb57092146101c557600080fd5b806315ecef92146100965780635195bd29146100ad57806373911028146100dd5780637822ed49146100ff5780638b5b9ccc14610137575b600080fd5b3480156100a257600080fd5b506100ab6101cd565b005b3480156100b957600080fd5b50336000908152600560205260409020546040519081526020015b60405180910390f35b3480156100e957600080fd5b506100f26105b1565b6040516100d49190610be1565b34801561010b57600080fd5b5060005461011f906001600160a01b031681565b6040516001600160a01b0390911681526020016100d4565b34801561014357600080fd5b5061014c610609565b6040516100d49190610c25565b34801561016557600080fd5b506100ab61066a565b34801561017a57600080fd5b506100ab61080d565b34801561018f57600080fd5b50610198610888565b6040516100d49190610c8a565b3480156101b157600080fd5b506100ab6101c0366004610cf9565b610985565b6100ab610aa2565b6000546001600160a01b0316331461023a5760405162461bcd60e51b815260206004820152602560248201527f4f6e6c7920636f6e7472616374206f776e65722063616e207370696e20726f756044820152646c6574746560d81b60648201526084015b60405180910390fd5b60007f000000000000000000000000000000000000000000000000000000000000000042443360405160200161029593929190928352602083019190915260601b6bffffffffffffffffffffffff1916604082015260540190565b6040516020818303038152906040528051906020012060001c6102b89190610dae565b60018054808201825560009182527fb10e2d527612073b26eecdfd717e6a320cf44b4afac2b0732d9fcbe2b7fa0cf60182905590915060609082900361031a575060408051808201909152600581526433b932b2b760d91b6020820152610386565b600382600f811061032d5761032d610dd0565b602081049091015460ff601f9092166101000a9004161561036857506040805180820190915260038152621c995960ea1b6020820152610386565b50604080518082019091526005815264626c61636b60d81b60208201525b60005b6002548110156105ac576000600282815481106103a8576103a8610dd0565b60009182526020808320909101546001600160a01b0316808352600490915260409091205490915015610599576001600160a01b03811660009081526004602052604090206001018054610484919061040090610de6565b80601f016020809104026020016040519081016040528092919081815260200182805461042c90610de6565b80156104795780601f1061044e57610100808354040283529160200191610479565b820191906000526020600020905b81548152906001019060200180831161045c57829003601f168201915b505050505084610b08565b80156104b257506104b2836040518060400160405280600581526020016433b932b2b760d91b815250610b08565b1561050e576001600160a01b0381166000908152600460205260409020546104db90600e610e36565b6001600160a01b03821660009081526005602052604081208054909190610503908490610e4d565b909155506105909050565b6001600160a01b03811660009081526004602052604090206001018054610539919061040090610de6565b15610590576001600160a01b038116600090815260046020526040902054610562906002610e36565b6001600160a01b0382166000908152600560205260408120805490919061058a908490610e4d565b90915550505b61059981610b62565b50806105a481610e60565b915050610389565b505050565b606060018054806020026020016040519081016040528092919081815260200182805480156105ff57602002820191906000526020600020905b8154815260200190600101908083116105eb575b5050505050905090565b606060028054806020026020016040519081016040528092919081815260200182805480156105ff57602002820191906000526020600020905b81546001600160a01b03168152600190910190602001808311610643575050505050905090565b336000908152600560205260409020546106c65760405162461bcd60e51b815260206004820152601860248201527f596f75206d75737420656e74657220616e20616d6f756e7400000000000000006044820152606401610231565b336000908152600560205260408082205482546001600160a01b0316835291205410156107355760405162461bcd60e51b815260206004820152601c60248201527f4e6f7420656e6f7567682066756e647320696e207468652062616e6b000000006044820152606401610231565b336000908152600560205260408082205482546001600160a01b03168352908220805491928392610767908490610e79565b9091555050336000818152600560205260408082208290555190919083908381818185875af1925050503d80600081146107bd576040519150601f19603f3d011682016040523d82523d6000602084013e6107c2565b606091505b50509050806108095760405162461bcd60e51b8152602060048201526013602482015272115512081d1c985b9cd9995c8819985a5b1959606a1b6044820152606401610231565b5050565b3360009081526006602052604090205460ff16151560011461088657336000818152600660205260408120805460ff191660019081179091556002805491820181559091527f405787fa12a823e0f2b7631cc41b3ba8828b3321ca811111fa75cd3aa3bb5ace0180546001600160a01b03191690911790555b565b6108b56040518060600160405280600081526020016060815260200160006001600160a01b031681525090565b336000908152600460209081526040918290208251606081019093528054835260018101805491928401916108e990610de6565b80601f016020809104026020016040519081016040528092919081815260200182805461091590610de6565b80156109625780601f1061093757610100808354040283529160200191610962565b820191906000526020600020905b81548152906001019060200180831161094557829003601f168201915b5050509183525050600291909101546001600160a01b0316602090910152919050565b3360009081526006602052604090205460ff166109e45760405162461bcd60e51b815260206004820152601b60248201527f506c61796572206e6565647320746f20626520617070726f76656400000000006044820152606401610231565b33600090815260056020526040902054811115610a3b5760405162461bcd60e51b81526020600482015260156024820152744e6f7420656e6f75676820757365722066756e647360581b6044820152606401610231565b336000908152600460205260409020818155600101610a5a8382610eda565b5033600081815260046020908152604080832060020180546001600160a01b031916909417909355600590529081208054839290610a99908490610e79565b90915550505050565b60003411610ae25760405162461bcd60e51b815260206004820152600d60248201526c09aeae6e840e6cadcc8408aa89609b1b6044820152606401610231565b3360009081526005602052604081208054349290610b01908490610e4d565b9091555050565b600081604051602001610b1b9190610f9a565b6040516020818303038152906040528051906020012083604051602001610b429190610f9a565b604051602081830303815290604052805190602001201490505b92915050565b6040805160608101825260008082528251602081810185528282528084019182526001600160a01b0386168486018190528352600490529290208151815591519091906001820190610bb49082610eda565b5060409190910151600290910180546001600160a01b0319166001600160a01b0390921691909117905550565b6020808252825182820181905260009190848201906040850190845b81811015610c1957835183529284019291840191600101610bfd565b50909695505050505050565b6020808252825182820181905260009190848201906040850190845b81811015610c195783516001600160a01b031683529284019291840191600101610c41565b60005b83811015610c81578181015183820152602001610c69565b50506000910152565b602081528151602082015260006020830151606060408401528051806080850152610cbc8160a0860160208501610c66565b604094909401516001600160a01b03166060840152505060a0601f909201601f1916010190565b634e487b7160e01b600052604160045260246000fd5b60008060408385031215610d0c57600080fd5b823567ffffffffffffffff80821115610d2457600080fd5b818501915085601f830112610d3857600080fd5b813581811115610d4a57610d4a610ce3565b604051601f8201601f19908116603f01168101908382118183101715610d7257610d72610ce3565b81604052828152886020848701011115610d8b57600080fd5b826020860160208301376000602093820184015298969091013596505050505050565b600082610dcb57634e487b7160e01b600052601260045260246000fd5b500690565b634e487b7160e01b600052603260045260246000fd5b600181811c90821680610dfa57607f821691505b602082108103610e1a57634e487b7160e01b600052602260045260246000fd5b50919050565b634e487b7160e01b600052601160045260246000fd5b8082028115828204841417610b5c57610b5c610e20565b80820180821115610b5c57610b5c610e20565b600060018201610e7257610e72610e20565b5060010190565b81810381811115610b5c57610b5c610e20565b601f8211156105ac57600081815260208120601f850160051c81016020861015610eb35750805b601f850160051c820191505b81811015610ed257828155600101610ebf565b505050505050565b815167ffffffffffffffff811115610ef457610ef4610ce3565b610f0881610f028454610de6565b84610e8c565b602080601f831160018114610f3d5760008415610f255750858301515b600019600386901b1c1916600185901b178555610ed2565b600085815260208120601f198616915b82811015610f6c57888601518255948401946001909101908401610f4d565b5085821015610f8a5787850151600019600388901b60f8161c191681555b5050505050600190811b01905550565b60008251610fac818460208701610c66565b919091019291505056fea26469706673582212205faaef677c183ccb8b3c6296ae005c74137e5334625ce867a92c646dd37282c164736f6c63430008110033",
  "immutableReferences": {
    "6": [
      {
        "length": 32,
        "start": 574
      }
    ]
  },
  "source": "// SPDX-License-Identifier: MIT\r\npragma solidity ^0.8.0;\r\n\r\ncontract Roulette {\r\n    address public bankAddress;\r\n    uint256 immutable ROULETTE_NUMBER_COUNT = 14;\r\n    uint256[] spinsHistory;\r\n    address[] players;\r\n    bool[15] isNumberRed = [false, true, true, true, true, true, true, true, false, false, false, false, false, false, false];\r\n    \r\n    constructor() {\r\n        bankAddress = msg.sender;\r\n    }\r\n\r\n    struct GameRound {\r\n        uint256 betAmount;\r\n        string betColor;\r\n        address player;\r\n    }\r\n\r\n    mapping(address => GameRound) gameRounds;\r\n    mapping(address => uint256) registeredFunds;\r\n    mapping(address => bool) approvedPlayer;\r\n\r\n    function increaseFunds() public payable {\r\n        require(msg.value > 0, \"Must send ETH\");\r\n        registeredFunds[msg.sender] += msg.value;\r\n    }\r\n\r\n    function withdrawMoney() public {\r\n        require(registeredFunds[msg.sender] > 0, \"You must enter an amount\");\r\n        require(registeredFunds[bankAddress] >= registeredFunds[msg.sender], \"Not enough funds in the bank\");\r\n\r\n        uint256 funds = registeredFunds[msg.sender];\r\n        registeredFunds[bankAddress] -= funds;\r\n        registeredFunds[msg.sender] = 0;\r\n\r\n        (bool wasSuccessful, ) = msg.sender.call{value: funds}(\"\");\r\n        require(wasSuccessful, \"ETH transfer failed\");\r\n    }\r\n\r\n    function placeBet(string memory color, uint256 amount) public {\r\n        require(approvedPlayer[msg.sender], \"Player needs to be approved\");\r\n        require(registeredFunds[msg.sender] >= amount, \"Not enough user funds\");\r\n\r\n        gameRounds[msg.sender].betAmount = amount;\r\n        gameRounds[msg.sender].betColor = color;\r\n        gameRounds[msg.sender].player = msg.sender;\r\n        registeredFunds[msg.sender] -= amount;\r\n    }\r\n\r\n    function getPlayers() public view returns(address [] memory) {\r\n        return players;\r\n    }\r\n\r\n    function resetGameRound(address userAddress) private {\r\n        gameRounds[userAddress] = GameRound(0, \"\", userAddress);\r\n    }\r\n\r\n    function start() public {\r\n        if (approvedPlayer[msg.sender] != true) {\r\n            approvedPlayer[msg.sender] = true;\r\n            players.push(msg.sender);\r\n        }\r\n    }\r\n\r\n    function compareStrings(string memory a, string memory b) private pure returns (bool) {\r\n        return (keccak256(abi.encodePacked((a))) == keccak256(abi.encodePacked((b))));\r\n    }\r\n\r\n    function getAvailableFunds() public view returns (uint256) {\r\n        return registeredFunds[msg.sender];\r\n    }\r\n\r\n    function getSpinsHistory() public view returns (uint256[] memory) {\r\n        return spinsHistory;\r\n    }\r\n\r\n    function getPlayerLastGameRound() public view returns (GameRound memory) {\r\n        return gameRounds[msg.sender];\r\n    }\r\n\r\n    function spinWheel() public {\r\n        require(msg.sender == bankAddress, \"Only contract owner can spin roulette\");\r\n        uint256 number = uint(keccak256(abi.encodePacked(block.timestamp, block.difficulty, msg.sender))) % ROULETTE_NUMBER_COUNT;\r\n        spinsHistory.push(number);\r\n        string memory color;\r\n\r\n        if (number == 0) color = \"green\";\r\n        else if (isNumberRed[number]) color = \"red\";\r\n        else color = \"black\";\r\n\r\n        for (uint256 i=0; i<players.length; i++) {\r\n            address player = players[i];\r\n            if (gameRounds[player].betAmount != 0) {\r\n                if (compareStrings(gameRounds[player].betColor, color) && compareStrings(color, \"green\")) registeredFunds[player] += gameRounds[player].betAmount*14;\r\n                else if (compareStrings(gameRounds[player].betColor, color)) registeredFunds[player] += gameRounds[player].betAmount*2;\r\n                resetGameRound(player);\r\n            }\r\n        }\r\n    }\r\n}",
  "sourcePath": "C:\\Users\\valat\\OneDrive\\Stalinis kompiuteris\\uni\\bloku grandines\\smart-contracts\\solidity\\contracts\\Roulette.sol",
  "compiler": {
    "name": "solc",
    "version": "0.8.17+commit.8df45f5f.Emscripten.clang"
  },
  "schemaVersion": "3.4.11",
  "updatedAt": "2022-12-13T23:42:36.961Z",
  "networkType": "ethereum",
  "devdoc": {
    "kind": "dev",
    "methods": {},
    "version": 1
  },
  "userdoc": {
    "kind": "user",
    "methods": {},
    "version": 1
  }
}